{
  "contractName": "FootballBets",
  "abi": [
    {
      "inputs": [
        {
          "internalType": "address",
          "name": "_manager",
          "type": "address"
        },
        {
          "internalType": "string",
          "name": "_league",
          "type": "string"
        },
        {
          "internalType": "string",
          "name": "_match",
          "type": "string"
        }
      ],
      "stateMutability": "nonpayable",
      "type": "constructor"
    },
    {
      "anonymous": false,
      "inputs": [
        {
          "indexed": true,
          "internalType": "address",
          "name": "sender",
          "type": "address"
        },
        {
          "indexed": false,
          "internalType": "string",
          "name": "score",
          "type": "string"
        }
      ],
      "name": "newBetMade",
      "type": "event"
    },
    {
      "anonymous": false,
      "inputs": [
        {
          "indexed": true,
          "internalType": "address[]",
          "name": "",
          "type": "address[]"
        }
      ],
      "name": "publishWinners",
      "type": "event"
    },
    {
      "inputs": [],
      "name": "betState",
      "outputs": [
        {
          "internalType": "enum FootballBets.State",
          "name": "",
          "type": "uint8"
        }
      ],
      "stateMutability": "view",
      "type": "function"
    },
    {
      "inputs": [],
      "name": "betValue",
      "outputs": [
        {
          "internalType": "uint256",
          "name": "",
          "type": "uint256"
        }
      ],
      "stateMutability": "view",
      "type": "function"
    },
    {
      "inputs": [
        {
          "internalType": "uint256",
          "name": "",
          "type": "uint256"
        }
      ],
      "name": "betWinners",
      "outputs": [
        {
          "internalType": "address",
          "name": "",
          "type": "address"
        }
      ],
      "stateMutability": "view",
      "type": "function"
    },
    {
      "inputs": [
        {
          "internalType": "uint256",
          "name": "",
          "type": "uint256"
        }
      ],
      "name": "bets",
      "outputs": [
        {
          "internalType": "string",
          "name": "betScore",
          "type": "string"
        },
        {
          "internalType": "uint256",
          "name": "betAmount",
          "type": "uint256"
        },
        {
          "internalType": "address",
          "name": "better",
          "type": "address"
        },
        {
          "internalType": "bool",
          "name": "winner",
          "type": "bool"
        },
        {
          "internalType": "bool",
          "name": "paid",
          "type": "bool"
        }
      ],
      "stateMutability": "view",
      "type": "function"
    },
    {
      "inputs": [],
      "name": "manager",
      "outputs": [
        {
          "internalType": "address payable",
          "name": "",
          "type": "address"
        }
      ],
      "stateMutability": "view",
      "type": "function"
    },
    {
      "inputs": [],
      "name": "matchDispute",
      "outputs": [
        {
          "internalType": "string",
          "name": "",
          "type": "string"
        }
      ],
      "stateMutability": "view",
      "type": "function"
    },
    {
      "inputs": [],
      "name": "matchResult",
      "outputs": [
        {
          "internalType": "string",
          "name": "",
          "type": "string"
        }
      ],
      "stateMutability": "view",
      "type": "function"
    },
    {
      "inputs": [
        {
          "internalType": "string",
          "name": "_betScore",
          "type": "string"
        }
      ],
      "name": "newBets",
      "outputs": [],
      "stateMutability": "payable",
      "type": "function"
    },
    {
      "inputs": [],
      "name": "haltBets",
      "outputs": [],
      "stateMutability": "nonpayable",
      "type": "function"
    },
    {
      "inputs": [],
      "name": "checkPrizeAmount",
      "outputs": [
        {
          "internalType": "uint256",
          "name": "",
          "type": "uint256"
        }
      ],
      "stateMutability": "view",
      "type": "function"
    },
    {
      "inputs": [
        {
          "internalType": "string",
          "name": "_matchScore",
          "type": "string"
        }
      ],
      "name": "finalizeBetOption",
      "outputs": [],
      "stateMutability": "nonpayable",
      "type": "function"
    }
  ],
  "bytecode": "0x60806040523480156200001157600080fd5b5060405162001e1b38038062001e1b833981810160405281019062000037919062000201565b826000806101000a81548173ffffffffffffffffffffffffffffffffffffffff021916908373ffffffffffffffffffffffffffffffffffffffff16021790555081816040516020016200008c929190620002f9565b60405160208183030381529060405260019080519060200190620000b2929190620000bc565b505050506200053f565b828054620000ca906200040d565b90600052602060002090601f016020900481019282620000ee57600085556200013a565b82601f106200010957805160ff19168380011785556200013a565b828001600101855582156200013a579182015b82811115620001395782518255916020019190600101906200011c565b5b5090506200014991906200014d565b5090565b5b80821115620001685760008160009055506001016200014e565b5090565b6000620001836200017d8462000357565b6200032e565b905082815260208101848484011115620001a257620001a1620004dc565b5b620001af848285620003d7565b509392505050565b600081519050620001c88162000525565b92915050565b600082601f830112620001e657620001e5620004d7565b5b8151620001f88482602086016200016c565b91505092915050565b6000806000606084860312156200021d576200021c620004e6565b5b60006200022d86828701620001b7565b935050602084015167ffffffffffffffff811115620002515762000250620004e1565b5b6200025f86828701620001ce565b925050604084015167ffffffffffffffff811115620002835762000282620004e1565b5b6200029186828701620001ce565b9150509250925092565b6000620002a8826200038d565b620002b4818562000398565b9350620002c6818560208601620003d7565b80840191505092915050565b6000620002e160038362000398565b9150620002ee82620004fc565b600382019050919050565b60006200030782856200029b565b91506200031482620002d2565b91506200032282846200029b565b91508190509392505050565b60006200033a6200034d565b905062000348828262000443565b919050565b6000604051905090565b600067ffffffffffffffff821115620003755762000374620004a8565b5b6200038082620004eb565b9050602081019050919050565b600081519050919050565b600081905092915050565b6000620003b082620003b7565b9050919050565b600073ffffffffffffffffffffffffffffffffffffffff82169050919050565b60005b83811015620003f7578082015181840152602081019050620003da565b8381111562000407576000848401525b50505050565b600060028204905060018216806200042657607f821691505b602082108114156200043d576200043c62000479565b5b50919050565b6200044e82620004eb565b810181811067ffffffffffffffff8211171562000470576200046f620004a8565b5b80604052505050565b7f4e487b7100000000000000000000000000000000000000000000000000000000600052602260045260246000fd5b7f4e487b7100000000000000000000000000000000000000000000000000000000600052604160045260246000fd5b600080fd5b600080fd5b600080fd5b600080fd5b6000601f19601f8301169050919050565b7f202d200000000000000000000000000000000000000000000000000000000000600082015250565b6200053081620003a3565b81146200053c57600080fd5b50565b6118cc806200054f6000396000f3fe60806040526004361061009c5760003560e01c80635d33d797116100645780635d33d797146101a057806393179241146101b7578063af3fac40146101e0578063df7bf7041461020b578063f90a3ac314610236578063f939aad1146102615761009c565b806315a0b939146100a157806322af00fa146100cc57806326b1d1691461010d5780634565361c1461014a578063481c6a7514610175575b600080fd5b3480156100ad57600080fd5b506100b661027d565b6040516100c3919061129f565b60405180910390f35b3480156100d857600080fd5b506100f360048036038101906100ee919061101e565b61030b565b6040516101049594939291906112c1565b60405180910390f35b34801561011957600080fd5b50610134600480360381019061012f919061101e565b610413565b604051610141919061124e565b60405180910390f35b34801561015657600080fd5b5061015f610452565b60405161016c919061135b565b60405180910390f35b34801561018157600080fd5b5061018a61045c565b6040516101979190611269565b60405180910390f35b3480156101ac57600080fd5b506101b5610480565b005b3480156101c357600080fd5b506101de60048036038101906101d99190610fd5565b610545565b005b3480156101ec57600080fd5b506101f5610b57565b604051610202919061135b565b60405180910390f35b34801561021757600080fd5b50610220610b62565b60405161022d919061129f565b60405180910390f35b34801561024257600080fd5b5061024b610bf0565b6040516102589190611284565b60405180910390f35b61027b60048036038101906102769190610fd5565b610c03565b005b6001805461028a906115a8565b80601f01602080910402602001604051908101604052809291908181526020018280546102b6906115a8565b80156103035780601f106102d857610100808354040283529160200191610303565b820191906000526020600020905b8154815290600101906020018083116102e657829003601f168201915b505050505081565b6003818154811061031b57600080fd5b906000526020600020906003020160009150905080600001805461033e906115a8565b80601f016020809104026020016040519081016040528092919081815260200182805461036a906115a8565b80156103b75780601f1061038c576101008083540402835291602001916103b7565b820191906000526020600020905b81548152906001019060200180831161039a57829003601f168201915b5050505050908060010154908060020160009054906101000a900473ffffffffffffffffffffffffffffffffffffffff16908060020160149054906101000a900460ff16908060020160159054906101000a900460ff16905085565b6007818154811061042357600080fd5b906000526020600020016000915054906101000a900473ffffffffffffffffffffffffffffffffffffffff1681565b6000600454905090565b60008054906101000a900473ffffffffffffffffffffffffffffffffffffffff1681565b60008054906101000a900473ffffffffffffffffffffffffffffffffffffffff1673ffffffffffffffffffffffffffffffffffffffff163373ffffffffffffffffffffffffffffffffffffffff16146104d857600080fd5b600060028111156104ec576104eb6116cc565b5b600060149054906101000a900460ff16600281111561050e5761050d6116cc565b5b1461051857600080fd5b6001600060146101000a81548160ff0219169083600281111561053e5761053d6116cc565b5b0217905550565b60008054906101000a900473ffffffffffffffffffffffffffffffffffffffff1673ffffffffffffffffffffffffffffffffffffffff163373ffffffffffffffffffffffffffffffffffffffff161461059d57600080fd5b600160028111156105b1576105b06116cc565b5b600060149054906101000a900460ff1660028111156105d3576105d26116cc565b5b146105dd57600080fd5b80600290805190602001906105f3929190610ead565b5060005b6003805490508110156108cd5760026040516106139190611237565b60405180910390206003828154811061062f5761062e61172a565b5b906000526020600020906003020160000160405161064d9190611237565b604051809103902014156108b4576001600382815481106106715761067061172a565b5b906000526020600020906003020160020160146101000a81548160ff02191690831515021790555060068190806001815401808255809150506001900390600052602060002001600090919091909150556000151560056000600384815481106106de576106dd61172a565b5b906000526020600020906003020160020160009054906101000a900473ffffffffffffffffffffffffffffffffffffffff1673ffffffffffffffffffffffffffffffffffffffff1673ffffffffffffffffffffffffffffffffffffffff16815260200190815260200160002060009054906101000a900460ff16151514156108aa576001600560006003848154811061077a5761077961172a565b5b906000526020600020906003020160020160009054906101000a900473ffffffffffffffffffffffffffffffffffffffff1673ffffffffffffffffffffffffffffffffffffffff1673ffffffffffffffffffffffffffffffffffffffff16815260200190815260200160002060006101000a81548160ff0219169083151502179055506007600382815481106108135761081261172a565b5b906000526020600020906003020160020160009054906101000a900473ffffffffffffffffffffffffffffffffffffffff169080600181540180825580915050600190039060005260206000200160009091909190916101000a81548173ffffffffffffffffffffffffffffffffffffffff021916908373ffffffffffffffffffffffffffffffffffffffff1602179055506108af565b6108ba565b6108b9565b6108ba565b5b80806108c590611625565b9150506105f7565b5060076040516108dd9190611220565b60405180910390207f03e95483e416d6ee9b314defcc14bd4e574e999e02b20b30f1154e823eb0f71a60405160405180910390a260006007805490501115610ab15760006007805490506004546109349190611496565b9050600060048190555060005b600680549050811015610aaa57600015156003600683815481106109685761096761172a565b5b9060005260206000200154815481106109845761098361172a565b5b906000526020600020906003020160020160159054906101000a900460ff1615151415610a915760016003600683815481106109c3576109c261172a565b5b9060005260206000200154815481106109df576109de61172a565b5b906000526020600020906003020160020160156101000a81548160ff02191690831515021790555060078181548110610a1b57610a1a61172a565b5b9060005260206000200160009054906101000a900473ffffffffffffffffffffffffffffffffffffffff1673ffffffffffffffffffffffffffffffffffffffff166108fc839081150290604051600060405180830381858888f19350505050158015610a8b573d6000803e3d6000fd5b50610a96565b610a97565b5b8080610aa290611625565b915050610941565b5050610b29565b60006004549050600060048190555060008054906101000a900473ffffffffffffffffffffffffffffffffffffffff1673ffffffffffffffffffffffffffffffffffffffff166108fc829081150290604051600060405180830381858888f19350505050158015610b26573d6000803e3d6000fd5b50505b6002600060146101000a81548160ff02191690836002811115610b4f57610b4e6116cc565b5b021790555050565b66038d7ea4c6800081565b60028054610b6f906115a8565b80601f0160208091040260200160405190810160405280929190818152602001828054610b9b906115a8565b8015610be85780601f10610bbd57610100808354040283529160200191610be8565b820191906000526020600020905b815481529060010190602001808311610bcb57829003601f168201915b505050505081565b600060149054906101000a900460ff1681565b60006002811115610c1757610c166116cc565b5b600060149054906101000a900460ff166002811115610c3957610c386116cc565b5b14610c4357600080fd5b60008054906101000a900473ffffffffffffffffffffffffffffffffffffffff1673ffffffffffffffffffffffffffffffffffffffff163373ffffffffffffffffffffffffffffffffffffffff161415610cd2576040517f08c379a0000000000000000000000000000000000000000000000000000000008152600401610cc99061133b565b60405180910390fd5b66038d7ea4c680003414610d1b576040517f08c379a0000000000000000000000000000000000000000000000000000000008152600401610d129061131b565b60405180910390fd5b60006040518060a001604052808381526020013481526020013373ffffffffffffffffffffffffffffffffffffffff16815260200160001515815260200160001515815250905060038190806001815401808255809150506001900390600052602060002090600302016000909190919091506000820151816000019080519060200190610daa929190610ead565b506020820151816001015560408201518160020160006101000a81548173ffffffffffffffffffffffffffffffffffffffff021916908373ffffffffffffffffffffffffffffffffffffffff16021790555060608201518160020160146101000a81548160ff02191690831515021790555060808201518160020160156101000a81548160ff0219169083151502179055505050806020015160046000828254610e549190611440565b925050819055503373ffffffffffffffffffffffffffffffffffffffff167fe184be4c5fd2dea14184f499a3332b5f3115231684762bb4a53bfd9c7a8d4b6883604051610ea1919061129f565b60405180910390a25050565b828054610eb9906115a8565b90600052602060002090601f016020900481019282610edb5760008555610f22565b82601f10610ef457805160ff1916838001178555610f22565b82800160010185558215610f22579182015b82811115610f21578251825591602001919060010190610f06565b5b509050610f2f9190610f33565b5090565b5b80821115610f4c576000816000905550600101610f34565b5090565b6000610f63610f5e8461139b565b611376565b905082815260208101848484011115610f7f57610f7e6117a0565b5b610f8a848285611566565b509392505050565b600082601f830112610fa757610fa661179b565b5b8135610fb7848260208601610f50565b91505092915050565b600081359050610fcf8161187f565b92915050565b600060208284031215610feb57610fea6117aa565b5b600082013567ffffffffffffffff811115611009576110086117a5565b5b61101584828501610f92565b91505092915050565b600060208284031215611034576110336117aa565b5b600061104284828501610fc0565b91505092915050565b60006110578383611081565b60208301905092915050565b61106c816114f9565b82525050565b61107b816114e7565b82525050565b61108a816114e7565b82525050565b600061109b826113f6565b6110a58185611419565b93506110b0836113cc565b8060005b838110156110e8576110c582611788565b6110cf888261104b565b97506110da8361140c565b9250506001810190506110b4565b5085935050505092915050565b6110fe8161150b565b82525050565b60008154611111816115a8565b61111b8186611424565b9450600182166000811461113657600181146111475761117a565b60ff1983168652818601935061117a565b611150856113e1565b60005b8381101561117257815481890152600182019150602081019050611153565b838801955050505b50505092915050565b61118c81611554565b82525050565b600061119d82611401565b6111a7818561142f565b93506111b7818560208601611575565b6111c0816117af565b840191505092915050565b60006111d8602b8361142f565b91506111e3826117cd565b604082019050919050565b60006111fb60278361142f565b91506112068261181c565b604082019050919050565b61121a8161154a565b82525050565b600061122c8284611090565b915081905092915050565b60006112438284611104565b915081905092915050565b60006020820190506112636000830184611072565b92915050565b600060208201905061127e6000830184611063565b92915050565b60006020820190506112996000830184611183565b92915050565b600060208201905081810360008301526112b98184611192565b905092915050565b600060a08201905081810360008301526112db8188611192565b90506112ea6020830187611211565b6112f76040830186611072565b61130460608301856110f5565b61131160808301846110f5565b9695505050505050565b60006020820190508181036000830152611334816111cb565b9050919050565b60006020820190508181036000830152611354816111ee565b9050919050565b60006020820190506113706000830184611211565b92915050565b6000611380611391565b905061138c82826115f4565b919050565b6000604051905090565b600067ffffffffffffffff8211156113b6576113b5611759565b5b6113bf826117af565b9050602081019050919050565b60008190508160005260206000209050919050565b60008190508160005260206000209050919050565b600081549050919050565b600081519050919050565b6000600182019050919050565b600081905092915050565b600081905092915050565b600082825260208201905092915050565b600061144b8261154a565b91506114568361154a565b9250827fffffffffffffffffffffffffffffffffffffffffffffffffffffffffffffffff0382111561148b5761148a61166e565b5b828201905092915050565b60006114a18261154a565b91506114ac8361154a565b9250826114bc576114bb61169d565b5b828204905092915050565b600073ffffffffffffffffffffffffffffffffffffffff82169050919050565b60006114f28261152a565b9050919050565b60006115048261152a565b9050919050565b60008115159050919050565b60008190506115258261186b565b919050565b600073ffffffffffffffffffffffffffffffffffffffff82169050919050565b6000819050919050565b600061155f82611517565b9050919050565b82818337600083830152505050565b60005b83811015611593578082015181840152602081019050611578565b838111156115a2576000848401525b50505050565b600060028204905060018216806115c057607f821691505b602082108114156115d4576115d36116fb565b5b50919050565b60006115ed6115e8836117c0565b6114c7565b9050919050565b6115fd826117af565b810181811067ffffffffffffffff8211171561161c5761161b611759565b5b80604052505050565b60006116308261154a565b91507fffffffffffffffffffffffffffffffffffffffffffffffffffffffffffffffff8214156116635761166261166e565b5b600182019050919050565b7f4e487b7100000000000000000000000000000000000000000000000000000000600052601160045260246000fd5b7f4e487b7100000000000000000000000000000000000000000000000000000000600052601260045260246000fd5b7f4e487b7100000000000000000000000000000000000000000000000000000000600052602160045260246000fd5b7f4e487b7100000000000000000000000000000000000000000000000000000000600052602260045260246000fd5b7f4e487b7100000000000000000000000000000000000000000000000000000000600052603260045260246000fd5b7f4e487b7100000000000000000000000000000000000000000000000000000000600052604160045260246000fd5b600061179482546115da565b9050919050565b600080fd5b600080fd5b600080fd5b600080fd5b6000601f19601f8301169050919050565b60008160001c9050919050565b7f596f75206469646e2774207265616368207468652065737461626c697368656460008201527f206265742076616c75652e000000000000000000000000000000000000000000602082015250565b7f596f752061726520746865206d616e616765722c2063616e277420706172746960008201527f6369706174652e00000000000000000000000000000000000000000000000000602082015250565b6003811061187c5761187b6116cc565b5b50565b6118888161154a565b811461189357600080fd5b5056fea2646970667358221220e215309b2ba80bb8e7b1a898928bc7caa78327acbc616186273db2a4ef6e31a664736f6c63430008060033",
  "immutableReferences": {},
  "source": "// SPDX-License-Identifier: MIT\n\npragma solidity ^0.8.6;\n\ncontract BetGenerator {\n    address public owner;\n    FootballBets public lastContract;\n    \n    constructor() {\n        owner = msg.sender;\n    }\n\n    event newBetOption(FootballBets indexed);\n\n    function generator(string memory _league, string memory _match) public {     \n        FootballBets newBetContract = new FootballBets(owner, _league, _match);\n        lastContract = newBetContract;\n        emit newBetOption(newBetContract);\n    }\n}\n\ncontract FootballBets {\n    address payable public manager;\n    \n    uint constant public betValue = 0.001 ether;\n\n    enum State {Open, Halted, Closed}\n    State public betState;\n    \n    string public matchDispute;\n    string public matchResult;\n    \n    struct Bet {\n        string betScore;\n        uint betAmount;\n        address better;\n        bool winner;\n        bool paid;\n    }\n    \n    Bet[] public bets;\n    uint prizeAmount;\n    \n    mapping(address => bool) checkWinner;\n    uint[] winningBetsIds;\n    address[] public betWinners;\n\n    constructor(address _manager, string memory _league, string memory _match) {\n        manager = payable(_manager);\n        matchDispute = string(abi.encodePacked(_league, \" - \", _match));\n    }\n\n    modifier OnlyOwner {\n        require(msg.sender == manager);\n        _;\n    }\n    \n    modifier Open {\n        require(betState == State.Open);\n        _;\n    }\n\n    modifier Halted {\n        require(betState == State.Halted);\n        _;\n    }\n\n    event newBetMade(address indexed sender, string score);\n\n    function newBets(string memory _betScore) public payable Open {\n        require(msg.sender != manager, \"You are the manager, can't participate.\");\n        require(msg.value == betValue, \"You didn't reach the established bet value.\");\n        \n        Bet memory newBet = Bet({\n            betScore: _betScore,\n            betAmount: msg.value,\n            better: msg.sender,\n            winner: false,\n            paid: false\n        });\n        \n        bets.push(newBet);\n        prizeAmount += newBet.betAmount;\n\n        emit newBetMade(msg.sender, _betScore);\n    }\n    \n    function haltBets() public OnlyOwner Open {\n        betState = State.Halted;\n    }\n\n    function checkPrizeAmount() public view returns(uint) {\n        return prizeAmount;\n    }\n\n    event publishWinners(address[] indexed);\n\n    function finalizeBetOption(string memory _matchScore) public OnlyOwner Halted {\n        //  Registering the football match result\n        \n        matchResult = _matchScore;\n        \n        //  Checking who got the right score and count amount of winners\n        \n        for (uint i = 0; i < bets.length; i++) {\n            if(keccak256(bytes(bets[i].betScore)) == keccak256(bytes(matchResult))) {\n                bets[i].winner = true;\n                winningBetsIds.push(i);\n\n                if(checkWinner[bets[i].better] == false) { \n                    checkWinner[bets[i].better] = true;\n                    betWinners.push(bets[i].better);\n\n                } else {\n                    continue;\n                }\n\n            } else {\n                continue;\n            }\n        }\n        \n        emit publishWinners(betWinners);\n\n        //  Paying the winners in case there are any or sending the amount of bets to the contract owner\n        \n        if(betWinners.length > 0) {\n\n            uint individualPrize;\n            individualPrize = prizeAmount / betWinners.length;\n            prizeAmount = 0;\n                                \n            for (uint i = 0; i < winningBetsIds.length; i++) {\n                if(bets[winningBetsIds[i]].paid == false) {\n                    bets[winningBetsIds[i]].paid = true;\n                    payable(betWinners[i]).transfer(individualPrize);\n                \n                } else {\n                    continue;\n                }\n            }\n            \n        } else {\n            uint earnings = prizeAmount;\n            prizeAmount = 0;\n            manager.transfer(earnings);\n        }\n        \n        betState = State.Closed;\n    }\n}",
  "sourcePath": "/home/thomasng/Documents/ProjectsSolidity/Truffle/FootballBets/contracts/FootBets.sol",
  "compiler": {
    "name": "solc",
    "version": "0.8.6+commit.11564f7e.Emscripten.clang"
  },
  "schemaVersion": "3.4.1",
  "updatedAt": "2021-07-24T20:48:38.532Z",
  "devdoc": {
    "kind": "dev",
    "methods": {},
    "version": 1
  },
  "userdoc": {
    "kind": "user",
    "methods": {},
    "version": 1
  }
}