{
  "contractName": "FootballBets",
  "abi": [
    {
      "inputs": [
        {
          "internalType": "address",
          "name": "_manager",
          "type": "address"
        },
        {
          "internalType": "string",
          "name": "_league",
          "type": "string"
        },
        {
          "internalType": "string",
          "name": "_match",
          "type": "string"
        }
      ],
      "stateMutability": "nonpayable",
      "type": "constructor"
    },
    {
      "anonymous": false,
      "inputs": [
        {
          "indexed": true,
          "internalType": "address",
          "name": "sender",
          "type": "address"
        },
        {
          "indexed": false,
          "internalType": "string",
          "name": "score",
          "type": "string"
        }
      ],
      "name": "newBetMade",
      "type": "event"
    },
    {
      "anonymous": false,
      "inputs": [
        {
          "indexed": true,
          "internalType": "address[]",
          "name": "",
          "type": "address[]"
        }
      ],
      "name": "publishWinners",
      "type": "event"
    },
    {
      "inputs": [],
      "name": "betState",
      "outputs": [
        {
          "internalType": "enum FootballBets.State",
          "name": "",
          "type": "uint8"
        }
      ],
      "stateMutability": "view",
      "type": "function",
      "constant": true
    },
    {
      "inputs": [],
      "name": "betValue",
      "outputs": [
        {
          "internalType": "uint256",
          "name": "",
          "type": "uint256"
        }
      ],
      "stateMutability": "view",
      "type": "function",
      "constant": true
    },
    {
      "inputs": [
        {
          "internalType": "uint256",
          "name": "",
          "type": "uint256"
        }
      ],
      "name": "betWinners",
      "outputs": [
        {
          "internalType": "address",
          "name": "",
          "type": "address"
        }
      ],
      "stateMutability": "view",
      "type": "function",
      "constant": true
    },
    {
      "inputs": [
        {
          "internalType": "uint256",
          "name": "",
          "type": "uint256"
        }
      ],
      "name": "bets",
      "outputs": [
        {
          "internalType": "string",
          "name": "betScore",
          "type": "string"
        },
        {
          "internalType": "uint256",
          "name": "betAmount",
          "type": "uint256"
        },
        {
          "internalType": "address",
          "name": "better",
          "type": "address"
        },
        {
          "internalType": "bool",
          "name": "winner",
          "type": "bool"
        }
      ],
      "stateMutability": "view",
      "type": "function",
      "constant": true
    },
    {
      "inputs": [],
      "name": "manager",
      "outputs": [
        {
          "internalType": "address payable",
          "name": "",
          "type": "address"
        }
      ],
      "stateMutability": "view",
      "type": "function",
      "constant": true
    },
    {
      "inputs": [],
      "name": "matchDispute",
      "outputs": [
        {
          "internalType": "string",
          "name": "",
          "type": "string"
        }
      ],
      "stateMutability": "view",
      "type": "function",
      "constant": true
    },
    {
      "inputs": [],
      "name": "matchResult",
      "outputs": [
        {
          "internalType": "string",
          "name": "",
          "type": "string"
        }
      ],
      "stateMutability": "view",
      "type": "function",
      "constant": true
    },
    {
      "inputs": [
        {
          "internalType": "string",
          "name": "_betScore",
          "type": "string"
        }
      ],
      "name": "newBets",
      "outputs": [],
      "stateMutability": "payable",
      "type": "function",
      "payable": true
    },
    {
      "inputs": [],
      "name": "haltBets",
      "outputs": [],
      "stateMutability": "nonpayable",
      "type": "function"
    },
    {
      "inputs": [],
      "name": "checkPrizeAmount",
      "outputs": [
        {
          "internalType": "uint256",
          "name": "",
          "type": "uint256"
        }
      ],
      "stateMutability": "view",
      "type": "function",
      "constant": true
    },
    {
      "inputs": [
        {
          "internalType": "string",
          "name": "_matchScore",
          "type": "string"
        }
      ],
      "name": "finalizeBetOption",
      "outputs": [],
      "stateMutability": "nonpayable",
      "type": "function"
    },
    {
      "inputs": [],
      "name": "withdrawPrize",
      "outputs": [],
      "stateMutability": "nonpayable",
      "type": "function"
    },
    {
      "inputs": [],
      "name": "receiveContractProfit",
      "outputs": [],
      "stateMutability": "nonpayable",
      "type": "function"
    }
  ],
  "bytecode": "0x60806040523480156200001157600080fd5b50604051620020e1380380620020e1833981810160405281019062000037919062000201565b826000806101000a81548173ffffffffffffffffffffffffffffffffffffffff021916908373ffffffffffffffffffffffffffffffffffffffff16021790555081816040516020016200008c929190620002f9565b60405160208183030381529060405260019080519060200190620000b2929190620000bc565b505050506200053f565b828054620000ca906200040d565b90600052602060002090601f016020900481019282620000ee57600085556200013a565b82601f106200010957805160ff19168380011785556200013a565b828001600101855582156200013a579182015b82811115620001395782518255916020019190600101906200011c565b5b5090506200014991906200014d565b5090565b5b80821115620001685760008160009055506001016200014e565b5090565b6000620001836200017d8462000357565b6200032e565b905082815260208101848484011115620001a257620001a1620004dc565b5b620001af848285620003d7565b509392505050565b600081519050620001c88162000525565b92915050565b600082601f830112620001e657620001e5620004d7565b5b8151620001f88482602086016200016c565b91505092915050565b6000806000606084860312156200021d576200021c620004e6565b5b60006200022d86828701620001b7565b935050602084015167ffffffffffffffff811115620002515762000250620004e1565b5b6200025f86828701620001ce565b925050604084015167ffffffffffffffff811115620002835762000282620004e1565b5b6200029186828701620001ce565b9150509250925092565b6000620002a8826200038d565b620002b4818562000398565b9350620002c6818560208601620003d7565b80840191505092915050565b6000620002e160038362000398565b9150620002ee82620004fc565b600382019050919050565b60006200030782856200029b565b91506200031482620002d2565b91506200032282846200029b565b91508190509392505050565b60006200033a6200034d565b905062000348828262000443565b919050565b6000604051905090565b600067ffffffffffffffff821115620003755762000374620004a8565b5b6200038082620004eb565b9050602081019050919050565b600081519050919050565b600081905092915050565b6000620003b082620003b7565b9050919050565b600073ffffffffffffffffffffffffffffffffffffffff82169050919050565b60005b83811015620003f7578082015181840152602081019050620003da565b8381111562000407576000848401525b50505050565b600060028204905060018216806200042657607f821691505b602082108114156200043d576200043c62000479565b5b50919050565b6200044e82620004eb565b810181811067ffffffffffffffff8211171562000470576200046f620004a8565b5b80604052505050565b7f4e487b7100000000000000000000000000000000000000000000000000000000600052602260045260246000fd5b7f4e487b7100000000000000000000000000000000000000000000000000000000600052604160045260246000fd5b600080fd5b600080fd5b600080fd5b600080fd5b6000601f19601f8301169050919050565b7f202d200000000000000000000000000000000000000000000000000000000000600082015250565b6200053081620003a3565b81146200053c57600080fd5b50565b611b92806200054f6000396000f3fe6080604052600436106100c25760003560e01c80635d33d7971161007f578063c4a9a4c511610059578063c4a9a4c514610247578063df7bf7041461025e578063f90a3ac314610289578063f939aad1146102b4576100c2565b80635d33d797146101dc57806393179241146101f3578063af3fac401461021c576100c2565b806315a0b939146100c757806322af00fa146100f257806326b1d169146101325780634565361c1461016f578063481c6a751461019a57806348d37a58146101c5575b600080fd5b3480156100d357600080fd5b506100dc6102d0565b6040516100e99190611472565b60405180910390f35b3480156100fe57600080fd5b5061011960048036038101906101149190611188565b61035e565b6040516101299493929190611494565b60405180910390f35b34801561013e57600080fd5b5061015960048036038101906101549190611188565b610453565b6040516101669190611421565b60405180910390f35b34801561017b57600080fd5b50610184610492565b6040516101919190611580565b60405180910390f35b3480156101a657600080fd5b506101af61049c565b6040516101bc919061143c565b60405180910390f35b3480156101d157600080fd5b506101da6104c0565b005b3480156101e857600080fd5b506101f16106da565b005b3480156101ff57600080fd5b5061021a6004803603810190610215919061113f565b61079f565b005b34801561022857600080fd5b50610231610ba0565b60405161023e9190611580565b60405180910390f35b34801561025357600080fd5b5061025c610bab565b005b34801561026a57600080fd5b50610273610cf5565b6040516102809190611472565b60405180910390f35b34801561029557600080fd5b5061029e610d83565b6040516102ab9190611457565b60405180910390f35b6102ce60048036038101906102c9919061113f565b610d96565b005b600180546102dd906117cd565b80601f0160208091040260200160405190810160405280929190818152602001828054610309906117cd565b80156103565780601f1061032b57610100808354040283529160200191610356565b820191906000526020600020905b81548152906001019060200180831161033957829003601f168201915b505050505081565b6003818154811061036e57600080fd5b9060005260206000209060030201600091509050806000018054610391906117cd565b80601f01602080910402602001604051908101604052809291908181526020018280546103bd906117cd565b801561040a5780601f106103df5761010080835404028352916020019161040a565b820191906000526020600020905b8154815290600101906020018083116103ed57829003601f168201915b5050505050908060010154908060020160009054906101000a900473ffffffffffffffffffffffffffffffffffffffff16908060020160149054906101000a900460ff16905084565b6006818154811061046357600080fd5b906000526020600020016000915054906101000a900473ffffffffffffffffffffffffffffffffffffffff1681565b6000600454905090565b60008054906101000a900473ffffffffffffffffffffffffffffffffffffffff1681565b6002808111156104d3576104d26118f1565b5b600060149054906101000a900460ff1660028111156104f5576104f46118f1565b5b146104ff57600080fd5b60006006805490501161051157600080fd5b60011515600560003373ffffffffffffffffffffffffffffffffffffffff1673ffffffffffffffffffffffffffffffffffffffff16815260200190815260200160002060009054906101000a900460ff161515146105a4576040517f08c379a000000000000000000000000000000000000000000000000000000000815260040161059b90611540565b60405180910390fd5b60001515600860003373ffffffffffffffffffffffffffffffffffffffff1673ffffffffffffffffffffffffffffffffffffffff16815260200190815260200160002060009054906101000a900460ff16151514610637576040517f08c379a000000000000000000000000000000000000000000000000000000000815260040161062e90611500565b60405180910390fd5b6001600860003373ffffffffffffffffffffffffffffffffffffffff1673ffffffffffffffffffffffffffffffffffffffff16815260200190815260200160002060006101000a81548160ff0219169083151502179055503373ffffffffffffffffffffffffffffffffffffffff166108fc6007549081150290604051600060405180830381858888f193505050501580156106d7573d6000803e3d6000fd5b50565b60008054906101000a900473ffffffffffffffffffffffffffffffffffffffff1673ffffffffffffffffffffffffffffffffffffffff163373ffffffffffffffffffffffffffffffffffffffff161461073257600080fd5b60006002811115610746576107456118f1565b5b600060149054906101000a900460ff166002811115610768576107676118f1565b5b1461077257600080fd5b6001600060146101000a81548160ff02191690836002811115610798576107976118f1565b5b0217905550565b60008054906101000a900473ffffffffffffffffffffffffffffffffffffffff1673ffffffffffffffffffffffffffffffffffffffff163373ffffffffffffffffffffffffffffffffffffffff16146107f757600080fd5b6001600281111561080b5761080a6118f1565b5b600060149054906101000a900460ff16600281111561082d5761082c6118f1565b5b1461083757600080fd5b806002908051906020019061084d929190611017565b5060005b600380549050811015610afe57600260405161086d919061140a565b6040518091039020600382815481106108895761088861194f565b5b90600052602060002090600302016000016040516108a7919061140a565b60405180910390201415610ae5576001600382815481106108cb576108ca61194f565b5b906000526020600020906003020160020160146101000a81548160ff02191690831515021790555060001515600560006003848154811061090f5761090e61194f565b5b906000526020600020906003020160020160009054906101000a900473ffffffffffffffffffffffffffffffffffffffff1673ffffffffffffffffffffffffffffffffffffffff1673ffffffffffffffffffffffffffffffffffffffff16815260200190815260200160002060009054906101000a900460ff1615151415610adb57600160056000600384815481106109ab576109aa61194f565b5b906000526020600020906003020160020160009054906101000a900473ffffffffffffffffffffffffffffffffffffffff1673ffffffffffffffffffffffffffffffffffffffff1673ffffffffffffffffffffffffffffffffffffffff16815260200190815260200160002060006101000a81548160ff021916908315150217905550600660038281548110610a4457610a4361194f565b5b906000526020600020906003020160020160009054906101000a900473ffffffffffffffffffffffffffffffffffffffff169080600181540180825580915050600190039060005260206000200160009091909190916101000a81548173ffffffffffffffffffffffffffffffffffffffff021916908373ffffffffffffffffffffffffffffffffffffffff160217905550610ae0565b610aeb565b610aea565b610aeb565b5b8080610af69061184a565b915050610851565b5060006006805490501115610b2f57600680549050600454610b2091906116bb565b60078190555060006004819055505b6002600060146101000a81548160ff02191690836002811115610b5557610b546118f1565b5b02179055506006604051610b6991906113f3565b60405180910390207f03e95483e416d6ee9b314defcc14bd4e574e999e02b20b30f1154e823eb0f71a60405160405180910390a250565b66038d7ea4c6800081565b60008054906101000a900473ffffffffffffffffffffffffffffffffffffffff1673ffffffffffffffffffffffffffffffffffffffff163373ffffffffffffffffffffffffffffffffffffffff1614610c0357600080fd5b600280811115610c1657610c156118f1565b5b600060149054906101000a900460ff166002811115610c3857610c376118f1565b5b14610c4257600080fd5b600060068054905014610c8a576040517f08c379a0000000000000000000000000000000000000000000000000000000008152600401610c8190611520565b60405180910390fd5b60008054906101000a900473ffffffffffffffffffffffffffffffffffffffff1673ffffffffffffffffffffffffffffffffffffffff166108fc6004549081150290604051600060405180830381858888f19350505050158015610cf2573d6000803e3d6000fd5b50565b60028054610d02906117cd565b80601f0160208091040260200160405190810160405280929190818152602001828054610d2e906117cd565b8015610d7b5780601f10610d5057610100808354040283529160200191610d7b565b820191906000526020600020905b815481529060010190602001808311610d5e57829003601f168201915b505050505081565b600060149054906101000a900460ff1681565b60006002811115610daa57610da96118f1565b5b600060149054906101000a900460ff166002811115610dcc57610dcb6118f1565b5b14610dd657600080fd5b60008054906101000a900473ffffffffffffffffffffffffffffffffffffffff1673ffffffffffffffffffffffffffffffffffffffff163373ffffffffffffffffffffffffffffffffffffffff161415610e65576040517f08c379a0000000000000000000000000000000000000000000000000000000008152600401610e5c90611560565b60405180910390fd5b66038d7ea4c680003414610eae576040517f08c379a0000000000000000000000000000000000000000000000000000000008152600401610ea5906114e0565b60405180910390fd5b600060405180608001604052808381526020013481526020013373ffffffffffffffffffffffffffffffffffffffff16815260200160001515815250905060038190806001815401808255809150506001900390600052602060002090600302016000909190919091506000820151816000019080519060200190610f34929190611017565b506020820151816001015560408201518160020160006101000a81548173ffffffffffffffffffffffffffffffffffffffff021916908373ffffffffffffffffffffffffffffffffffffffff16021790555060608201518160020160146101000a81548160ff0219169083151502179055505050806020015160046000828254610fbe9190611665565b925050819055503373ffffffffffffffffffffffffffffffffffffffff167fe184be4c5fd2dea14184f499a3332b5f3115231684762bb4a53bfd9c7a8d4b688360405161100b9190611472565b60405180910390a25050565b828054611023906117cd565b90600052602060002090601f016020900481019282611045576000855561108c565b82601f1061105e57805160ff191683800117855561108c565b8280016001018555821561108c579182015b8281111561108b578251825591602001919060010190611070565b5b509050611099919061109d565b5090565b5b808211156110b657600081600090555060010161109e565b5090565b60006110cd6110c8846115c0565b61159b565b9050828152602081018484840111156110e9576110e86119c5565b5b6110f484828561178b565b509392505050565b600082601f830112611111576111106119c0565b5b81356111218482602086016110ba565b91505092915050565b60008135905061113981611b45565b92915050565b600060208284031215611155576111546119cf565b5b600082013567ffffffffffffffff811115611173576111726119ca565b5b61117f848285016110fc565b91505092915050565b60006020828403121561119e5761119d6119cf565b5b60006111ac8482850161112a565b91505092915050565b60006111c183836111eb565b60208301905092915050565b6111d68161171e565b82525050565b6111e58161170c565b82525050565b6111f48161170c565b82525050565b60006112058261161b565b61120f818561163e565b935061121a836115f1565b8060005b838110156112525761122f826119ad565b61123988826111b5565b975061124483611631565b92505060018101905061121e565b5085935050505092915050565b61126881611730565b82525050565b6000815461127b816117cd565b6112858186611649565b945060018216600081146112a057600181146112b1576112e4565b60ff198316865281860193506112e4565b6112ba85611606565b60005b838110156112dc578154818901526001820191506020810190506112bd565b838801955050505b50505092915050565b6112f681611779565b82525050565b600061130782611626565b6113118185611654565b935061132181856020860161179a565b61132a816119d4565b840191505092915050565b6000611342602b83611654565b915061134d826119f2565b604082019050919050565b6000611365602183611654565b915061137082611a41565b604082019050919050565b6000611388601e83611654565b915061139382611a90565b602082019050919050565b60006113ab601883611654565b91506113b682611ab9565b602082019050919050565b60006113ce602783611654565b91506113d982611ae2565b604082019050919050565b6113ed8161176f565b82525050565b60006113ff82846111fa565b915081905092915050565b6000611416828461126e565b915081905092915050565b600060208201905061143660008301846111dc565b92915050565b600060208201905061145160008301846111cd565b92915050565b600060208201905061146c60008301846112ed565b92915050565b6000602082019050818103600083015261148c81846112fc565b905092915050565b600060808201905081810360008301526114ae81876112fc565b90506114bd60208301866113e4565b6114ca60408301856111dc565b6114d7606083018461125f565b95945050505050565b600060208201905081810360008301526114f981611335565b9050919050565b6000602082019050818103600083015261151981611358565b9050919050565b600060208201905081810360008301526115398161137b565b9050919050565b600060208201905081810360008301526115598161139e565b9050919050565b60006020820190508181036000830152611579816113c1565b9050919050565b600060208201905061159560008301846113e4565b92915050565b60006115a56115b6565b90506115b18282611819565b919050565b6000604051905090565b600067ffffffffffffffff8211156115db576115da61197e565b5b6115e4826119d4565b9050602081019050919050565b60008190508160005260206000209050919050565b60008190508160005260206000209050919050565b600081549050919050565b600081519050919050565b6000600182019050919050565b600081905092915050565b600081905092915050565b600082825260208201905092915050565b60006116708261176f565b915061167b8361176f565b9250827fffffffffffffffffffffffffffffffffffffffffffffffffffffffffffffffff038211156116b0576116af611893565b5b828201905092915050565b60006116c68261176f565b91506116d18361176f565b9250826116e1576116e06118c2565b5b828204905092915050565b600073ffffffffffffffffffffffffffffffffffffffff82169050919050565b60006117178261174f565b9050919050565b60006117298261174f565b9050919050565b60008115159050919050565b600081905061174a82611b31565b919050565b600073ffffffffffffffffffffffffffffffffffffffff82169050919050565b6000819050919050565b60006117848261173c565b9050919050565b82818337600083830152505050565b60005b838110156117b857808201518184015260208101905061179d565b838111156117c7576000848401525b50505050565b600060028204905060018216806117e557607f821691505b602082108114156117f9576117f8611920565b5b50919050565b600061181261180d836119e5565b6116ec565b9050919050565b611822826119d4565b810181811067ffffffffffffffff821117156118415761184061197e565b5b80604052505050565b60006118558261176f565b91507fffffffffffffffffffffffffffffffffffffffffffffffffffffffffffffffff82141561188857611887611893565b5b600182019050919050565b7f4e487b7100000000000000000000000000000000000000000000000000000000600052601160045260246000fd5b7f4e487b7100000000000000000000000000000000000000000000000000000000600052601260045260246000fd5b7f4e487b7100000000000000000000000000000000000000000000000000000000600052602160045260246000fd5b7f4e487b7100000000000000000000000000000000000000000000000000000000600052602260045260246000fd5b7f4e487b7100000000000000000000000000000000000000000000000000000000600052603260045260246000fd5b7f4e487b7100000000000000000000000000000000000000000000000000000000600052604160045260246000fd5b60006119b982546117ff565b9050919050565b600080fd5b600080fd5b600080fd5b600080fd5b6000601f19601f8301169050919050565b60008160001c9050919050565b7f596f75206469646e2774207265616368207468652065737461626c697368656460008201527f206265742076616c75652e000000000000000000000000000000000000000000602082015250565b7f596f7520616c726561647920636f6c6c656374656420796f7572207072697a6560008201527f2e00000000000000000000000000000000000000000000000000000000000000602082015250565b7f5468657265206172652077696e6e65727320696e2074686973206265742e0000600082015250565b7f54686973206163636f756e74206469646e27742077696e2e0000000000000000600082015250565b7f596f752061726520746865206d616e616765722c2063616e277420706172746960008201527f6369706174652e00000000000000000000000000000000000000000000000000602082015250565b60038110611b4257611b416118f1565b5b50565b611b4e8161176f565b8114611b5957600080fd5b5056fea2646970667358221220a8cec72d2dd7f3c23e7da3b51c9258447b1c5ed3c6f3c52a73c1b29b5b52745864736f6c63430008060033",
  "immutableReferences": {},
  "source": "// SPDX-License-Identifier: MIT\n\npragma solidity ^0.8.6;\n\ncontract BetGenerator {\n    address public owner;\n    FootballBets public lastContract;\n    \n    constructor() {\n        owner = msg.sender;\n    }\n\n    event newBetOption(FootballBets indexed);\n\n    function generator(string memory _league, string memory _match) public {     \n        FootballBets newBetContract = new FootballBets(owner, _league, _match);\n        lastContract = newBetContract;\n        emit newBetOption(newBetContract);\n    }\n}\n\ncontract FootballBets {\n    address payable public manager;\n    \n    uint constant public betValue = 0.001 ether;\n\n    enum State {Open, Halted, Closed}\n    State public betState;\n    \n    string public matchDispute;\n    string public matchResult;\n    \n    struct Bet {\n        string betScore;\n        uint betAmount;\n        address better;\n        bool winner;\n    }\n    \n    Bet[] public bets;\n    uint prizeAmount;\n    \n    mapping(address => bool) checkWinner;\n    address[] public betWinners;\n    \n    uint individualPrize;\n    mapping(address => bool) paidWinner;\n\n    constructor(address _manager, string memory _league, string memory _match) {\n        manager = payable(_manager);\n        matchDispute = string(abi.encodePacked(_league, \" - \", _match));\n    }\n\n    modifier OnlyOwner {\n        require(msg.sender == manager);\n        _;\n    }\n    \n    modifier Open {\n        require(betState == State.Open);\n        _;\n    }\n\n    modifier Halted {\n        require(betState == State.Halted);\n        _;\n    }\n\n    modifier Closed {\n        require(betState == State.Closed);\n        _;\n    }\n\n    event newBetMade(address indexed sender, string score);\n\n    function newBets(string memory _betScore) public payable Open {\n        require(msg.sender != manager, \"You are the manager, can't participate.\");\n        require(msg.value == betValue, \"You didn't reach the established bet value.\");\n        \n        Bet memory newBet = Bet({\n            betScore: _betScore,\n            betAmount: msg.value,\n            better: msg.sender,\n            winner: false\n        });\n        \n        bets.push(newBet);\n        prizeAmount += newBet.betAmount;\n\n        emit newBetMade(msg.sender, _betScore);\n    }\n    \n    function haltBets() public OnlyOwner Open {\n        betState = State.Halted;\n    }\n\n    function checkPrizeAmount() public view returns(uint) {\n        return prizeAmount;\n    }\n\n    event publishWinners(address[] indexed);\n\n    function finalizeBetOption(string memory _matchScore) public OnlyOwner Halted {\n        //  Registering the football match result\n        \n        matchResult = _matchScore;\n        \n        //  Checking who got the right score and count amount of winners\n        \n        for (uint i = 0; i < bets.length; i++) {\n            if(keccak256(bytes(bets[i].betScore)) == keccak256(bytes(matchResult))) {\n                bets[i].winner = true;\n\n                if(checkWinner[bets[i].better] == false) { \n                    checkWinner[bets[i].better] = true;\n                    betWinners.push(bets[i].better);\n\n                } else {\n                    continue;\n                }\n\n            } else {\n                continue;\n            }\n        }\n        \n        if(betWinners.length > 0) {\n            individualPrize = prizeAmount / betWinners.length;\n            prizeAmount = 0;\n        }\n\n        betState = State.Closed;\n        emit publishWinners(betWinners);\n    }\n\n    function withdrawPrize() public Closed {\n        //  Allow the winners to withdraw their prize in case there are any\n        require(betWinners.length > 0);\n        require(checkWinner[msg.sender] == true, \"This account didn't win.\");\n        require(paidWinner[msg.sender] == false, \"You already collected your prize.\");\n        \n        paidWinner[msg.sender] = true;\n        payable(msg.sender).transfer(individualPrize);\n    }\n    \n    function receiveContractProfit() public OnlyOwner Closed {\n        //   Allow the contract owner to collect its profits from the match\n    require(betWinners.length == 0, \"There are winners in this bet.\");\n    \n    manager.transfer(prizeAmount);\n    }\n}",
  "sourcePath": "/home/thomasng/Documents/ProjectsSolidity/Truffle/FootballBets/contracts/FootBets.sol",
  "compiler": {
    "name": "solc",
    "version": "0.8.6+commit.11564f7e.Emscripten.clang"
  },
  "schemaVersion": "3.4.1",
  "updatedAt": "2021-08-02T18:21:41.389Z",
  "networkType": "ethereum",
  "devdoc": {
    "kind": "dev",
    "methods": {},
    "version": 1
  },
  "userdoc": {
    "kind": "user",
    "methods": {},
    "version": 1
  }
}